{
  "_format": "hh-sol-artifact-1",
  "contractName": "EventChain",
  "sourceName": "contracts/EventChain.sol",
  "abi": [
    {
      "inputs": [],
      "stateMutability": "nonpayable",
      "type": "constructor"
    },
    {
      "inputs": [
        {
          "internalType": "address",
          "name": "sender",
          "type": "address"
        },
        {
          "internalType": "uint256",
          "name": "tokenId",
          "type": "uint256"
        },
        {
          "internalType": "address",
          "name": "owner",
          "type": "address"
        }
      ],
      "name": "ERC721IncorrectOwner",
      "type": "error"
    },
    {
      "inputs": [
        {
          "internalType": "address",
          "name": "operator",
          "type": "address"
        },
        {
          "internalType": "uint256",
          "name": "tokenId",
          "type": "uint256"
        }
      ],
      "name": "ERC721InsufficientApproval",
      "type": "error"
    },
    {
      "inputs": [
        {
          "internalType": "address",
          "name": "approver",
          "type": "address"
        }
      ],
      "name": "ERC721InvalidApprover",
      "type": "error"
    },
    {
      "inputs": [
        {
          "internalType": "address",
          "name": "operator",
          "type": "address"
        }
      ],
      "name": "ERC721InvalidOperator",
      "type": "error"
    },
    {
      "inputs": [
        {
          "internalType": "address",
          "name": "owner",
          "type": "address"
        }
      ],
      "name": "ERC721InvalidOwner",
      "type": "error"
    },
    {
      "inputs": [
        {
          "internalType": "address",
          "name": "receiver",
          "type": "address"
        }
      ],
      "name": "ERC721InvalidReceiver",
      "type": "error"
    },
    {
      "inputs": [
        {
          "internalType": "address",
          "name": "sender",
          "type": "address"
        }
      ],
      "name": "ERC721InvalidSender",
      "type": "error"
    },
    {
      "inputs": [
        {
          "internalType": "uint256",
          "name": "tokenId",
          "type": "uint256"
        }
      ],
      "name": "ERC721NonexistentToken",
      "type": "error"
    },
    {
      "inputs": [
        {
          "internalType": "address",
          "name": "owner",
          "type": "address"
        }
      ],
      "name": "OwnableInvalidOwner",
      "type": "error"
    },
    {
      "inputs": [
        {
          "internalType": "address",
          "name": "account",
          "type": "address"
        }
      ],
      "name": "OwnableUnauthorizedAccount",
      "type": "error"
    },
    {
      "anonymous": false,
      "inputs": [
        {
          "indexed": true,
          "internalType": "address",
          "name": "owner",
          "type": "address"
        },
        {
          "indexed": true,
          "internalType": "address",
          "name": "approved",
          "type": "address"
        },
        {
          "indexed": true,
          "internalType": "uint256",
          "name": "tokenId",
          "type": "uint256"
        }
      ],
      "name": "Approval",
      "type": "event"
    },
    {
      "anonymous": false,
      "inputs": [
        {
          "indexed": true,
          "internalType": "address",
          "name": "owner",
          "type": "address"
        },
        {
          "indexed": true,
          "internalType": "address",
          "name": "operator",
          "type": "address"
        },
        {
          "indexed": false,
          "internalType": "bool",
          "name": "approved",
          "type": "bool"
        }
      ],
      "name": "ApprovalForAll",
      "type": "event"
    },
    {
      "anonymous": false,
      "inputs": [
        {
          "indexed": false,
          "internalType": "uint256",
          "name": "_fromTokenId",
          "type": "uint256"
        },
        {
          "indexed": false,
          "internalType": "uint256",
          "name": "_toTokenId",
          "type": "uint256"
        }
      ],
      "name": "BatchMetadataUpdate",
      "type": "event"
    },
    {
      "anonymous": false,
      "inputs": [
        {
          "indexed": false,
          "internalType": "uint256",
          "name": "eventId",
          "type": "uint256"
        },
        {
          "indexed": false,
          "internalType": "string",
          "name": "name",
          "type": "string"
        },
        {
          "indexed": false,
          "internalType": "uint256",
          "name": "date",
          "type": "uint256"
        },
        {
          "indexed": false,
          "internalType": "string",
          "name": "venue",
          "type": "string"
        },
        {
          "indexed": false,
          "internalType": "uint256",
          "name": "ticketPrice",
          "type": "uint256"
        },
        {
          "indexed": false,
          "internalType": "address",
          "name": "organizer",
          "type": "address"
        }
      ],
      "name": "EventCreated",
      "type": "event"
    },
    {
      "anonymous": false,
      "inputs": [
        {
          "indexed": false,
          "internalType": "uint256",
          "name": "_tokenId",
          "type": "uint256"
        }
      ],
      "name": "MetadataUpdate",
      "type": "event"
    },
    {
      "anonymous": false,
      "inputs": [
        {
          "indexed": true,
          "internalType": "address",
          "name": "previousOwner",
          "type": "address"
        },
        {
          "indexed": true,
          "internalType": "address",
          "name": "newOwner",
          "type": "address"
        }
      ],
      "name": "OwnershipTransferred",
      "type": "event"
    },
    {
      "anonymous": false,
      "inputs": [
        {
          "indexed": false,
          "internalType": "uint256",
          "name": "ticketId",
          "type": "uint256"
        },
        {
          "indexed": false,
          "internalType": "uint256",
          "name": "eventId",
          "type": "uint256"
        },
        {
          "indexed": false,
          "internalType": "address",
          "name": "buyer",
          "type": "address"
        }
      ],
      "name": "TicketPurchased",
      "type": "event"
    },
    {
      "anonymous": false,
      "inputs": [
        {
          "indexed": false,
          "internalType": "uint256",
          "name": "ticketId",
          "type": "uint256"
        },
        {
          "indexed": false,
          "internalType": "uint256",
          "name": "eventId",
          "type": "uint256"
        }
      ],
      "name": "TicketUsed",
      "type": "event"
    },
    {
      "anonymous": false,
      "inputs": [
        {
          "indexed": true,
          "internalType": "address",
          "name": "from",
          "type": "address"
        },
        {
          "indexed": true,
          "internalType": "address",
          "name": "to",
          "type": "address"
        },
        {
          "indexed": true,
          "internalType": "uint256",
          "name": "tokenId",
          "type": "uint256"
        }
      ],
      "name": "Transfer",
      "type": "event"
    },
    {
      "inputs": [
        {
          "internalType": "address",
          "name": "to",
          "type": "address"
        },
        {
          "internalType": "uint256",
          "name": "tokenId",
          "type": "uint256"
        }
      ],
      "name": "approve",
      "outputs": [],
      "stateMutability": "nonpayable",
      "type": "function"
    },
    {
      "inputs": [
        {
          "internalType": "address",
          "name": "owner",
          "type": "address"
        }
      ],
      "name": "balanceOf",
      "outputs": [
        {
          "internalType": "uint256",
          "name": "",
          "type": "uint256"
        }
      ],
      "stateMutability": "view",
      "type": "function"
    },
    {
      "inputs": [
        {
          "internalType": "string",
          "name": "name",
          "type": "string"
        },
        {
          "internalType": "uint256",
          "name": "date",
          "type": "uint256"
        },
        {
          "internalType": "string",
          "name": "venue",
          "type": "string"
        },
        {
          "internalType": "uint256",
          "name": "ticketPrice",
          "type": "uint256"
        }
      ],
      "name": "createEvent",
      "outputs": [],
      "stateMutability": "nonpayable",
      "type": "function"
    },
    {
      "inputs": [],
      "name": "eventCount",
      "outputs": [
        {
          "internalType": "uint256",
          "name": "",
          "type": "uint256"
        }
      ],
      "stateMutability": "view",
      "type": "function"
    },
    {
      "inputs": [
        {
          "internalType": "uint256",
          "name": "",
          "type": "uint256"
        }
      ],
      "name": "events",
      "outputs": [
        {
          "internalType": "string",
          "name": "name",
          "type": "string"
        },
        {
          "internalType": "uint256",
          "name": "date",
          "type": "uint256"
        },
        {
          "internalType": "string",
          "name": "venue",
          "type": "string"
        },
        {
          "internalType": "uint256",
          "name": "ticketPrice",
          "type": "uint256"
        },
        {
          "internalType": "address",
          "name": "organizer",
          "type": "address"
        },
        {
          "internalType": "bool",
          "name": "isActive",
          "type": "bool"
        }
      ],
      "stateMutability": "view",
      "type": "function"
    },
    {
      "inputs": [
        {
          "internalType": "uint256",
          "name": "tokenId",
          "type": "uint256"
        }
      ],
      "name": "getApproved",
      "outputs": [
        {
          "internalType": "address",
          "name": "",
          "type": "address"
        }
      ],
      "stateMutability": "view",
      "type": "function"
    },
    {
      "inputs": [
        {
          "internalType": "uint256",
          "name": "eventId",
          "type": "uint256"
        }
      ],
      "name": "getEvent",
      "outputs": [
        {
          "components": [
            {
              "internalType": "string",
              "name": "name",
              "type": "string"
            },
            {
              "internalType": "uint256",
              "name": "date",
              "type": "uint256"
            },
            {
              "internalType": "string",
              "name": "venue",
              "type": "string"
            },
            {
              "internalType": "uint256",
              "name": "ticketPrice",
              "type": "uint256"
            },
            {
              "internalType": "address",
              "name": "organizer",
              "type": "address"
            },
            {
              "internalType": "bool",
              "name": "isActive",
              "type": "bool"
            }
          ],
          "internalType": "struct EventChain.Event",
          "name": "",
          "type": "tuple"
        }
      ],
      "stateMutability": "view",
      "type": "function"
    },
    {
      "inputs": [
        {
          "internalType": "address",
          "name": "user",
          "type": "address"
        }
      ],
      "name": "getUserTickets",
      "outputs": [
        {
          "internalType": "uint256[]",
          "name": "",
          "type": "uint256[]"
        }
      ],
      "stateMutability": "view",
      "type": "function"
    },
    {
      "inputs": [
        {
          "internalType": "address",
          "name": "owner",
          "type": "address"
        },
        {
          "internalType": "address",
          "name": "operator",
          "type": "address"
        }
      ],
      "name": "isApprovedForAll",
      "outputs": [
        {
          "internalType": "bool",
          "name": "",
          "type": "bool"
        }
      ],
      "stateMutability": "view",
      "type": "function"
    },
    {
      "inputs": [],
      "name": "name",
      "outputs": [
        {
          "internalType": "string",
          "name": "",
          "type": "string"
        }
      ],
      "stateMutability": "view",
      "type": "function"
    },
    {
      "inputs": [],
      "name": "owner",
      "outputs": [
        {
          "internalType": "address",
          "name": "",
          "type": "address"
        }
      ],
      "stateMutability": "view",
      "type": "function"
    },
    {
      "inputs": [
        {
          "internalType": "uint256",
          "name": "tokenId",
          "type": "uint256"
        }
      ],
      "name": "ownerOf",
      "outputs": [
        {
          "internalType": "address",
          "name": "",
          "type": "address"
        }
      ],
      "stateMutability": "view",
      "type": "function"
    },
    {
      "inputs": [
        {
          "internalType": "uint256",
          "name": "eventId",
          "type": "uint256"
        }
      ],
      "name": "purchaseTicket",
      "outputs": [],
      "stateMutability": "payable",
      "type": "function"
    },
    {
      "inputs": [],
      "name": "renounceOwnership",
      "outputs": [],
      "stateMutability": "nonpayable",
      "type": "function"
    },
    {
      "inputs": [
        {
          "internalType": "address",
          "name": "from",
          "type": "address"
        },
        {
          "internalType": "address",
          "name": "to",
          "type": "address"
        },
        {
          "internalType": "uint256",
          "name": "tokenId",
          "type": "uint256"
        }
      ],
      "name": "safeTransferFrom",
      "outputs": [],
      "stateMutability": "nonpayable",
      "type": "function"
    },
    {
      "inputs": [
        {
          "internalType": "address",
          "name": "from",
          "type": "address"
        },
        {
          "internalType": "address",
          "name": "to",
          "type": "address"
        },
        {
          "internalType": "uint256",
          "name": "tokenId",
          "type": "uint256"
        },
        {
          "internalType": "bytes",
          "name": "data",
          "type": "bytes"
        }
      ],
      "name": "safeTransferFrom",
      "outputs": [],
      "stateMutability": "nonpayable",
      "type": "function"
    },
    {
      "inputs": [
        {
          "internalType": "address",
          "name": "operator",
          "type": "address"
        },
        {
          "internalType": "bool",
          "name": "approved",
          "type": "bool"
        }
      ],
      "name": "setApprovalForAll",
      "outputs": [],
      "stateMutability": "nonpayable",
      "type": "function"
    },
    {
      "inputs": [
        {
          "internalType": "bytes4",
          "name": "interfaceId",
          "type": "bytes4"
        }
      ],
      "name": "supportsInterface",
      "outputs": [
        {
          "internalType": "bool",
          "name": "",
          "type": "bool"
        }
      ],
      "stateMutability": "view",
      "type": "function"
    },
    {
      "inputs": [],
      "name": "symbol",
      "outputs": [
        {
          "internalType": "string",
          "name": "",
          "type": "string"
        }
      ],
      "stateMutability": "view",
      "type": "function"
    },
    {
      "inputs": [
        {
          "internalType": "uint256",
          "name": "",
          "type": "uint256"
        }
      ],
      "name": "tickets",
      "outputs": [
        {
          "internalType": "uint256",
          "name": "eventId",
          "type": "uint256"
        },
        {
          "internalType": "bool",
          "name": "used",
          "type": "bool"
        }
      ],
      "stateMutability": "view",
      "type": "function"
    },
    {
      "inputs": [
        {
          "internalType": "uint256",
          "name": "tokenId",
          "type": "uint256"
        }
      ],
      "name": "tokenURI",
      "outputs": [
        {
          "internalType": "string",
          "name": "",
          "type": "string"
        }
      ],
      "stateMutability": "view",
      "type": "function"
    },
    {
      "inputs": [
        {
          "internalType": "address",
          "name": "from",
          "type": "address"
        },
        {
          "internalType": "address",
          "name": "to",
          "type": "address"
        },
        {
          "internalType": "uint256",
          "name": "tokenId",
          "type": "uint256"
        }
      ],
      "name": "transferFrom",
      "outputs": [],
      "stateMutability": "nonpayable",
      "type": "function"
    },
    {
      "inputs": [
        {
          "internalType": "address",
          "name": "newOwner",
          "type": "address"
        }
      ],
      "name": "transferOwnership",
      "outputs": [],
      "stateMutability": "nonpayable",
      "type": "function"
    },
    {
      "inputs": [
        {
          "internalType": "address",
          "name": "to",
          "type": "address"
        },
        {
          "internalType": "uint256",
          "name": "ticketId",
          "type": "uint256"
        }
      ],
      "name": "transferTicket",
      "outputs": [],
      "stateMutability": "nonpayable",
      "type": "function"
    },
    {
      "inputs": [
        {
          "internalType": "uint256",
          "name": "ticketId",
          "type": "uint256"
        }
      ],
      "name": "useTicket",
      "outputs": [],
      "stateMutability": "nonpayable",
      "type": "function"
    }
  ],
  "bytecode": "0x6080604052600160085560016009553480156200001b57600080fd5b50336040518060400160405280601181526020017f4576656e74436861696e205469636b65740000000000000000000000000000008152506040518060400160405280600681526020017f5449434b4554000000000000000000000000000000000000000000000000000081525081600090816200009a91906200047c565b508060019081620000ac91906200047c565b505050600073ffffffffffffffffffffffffffffffffffffffff168173ffffffffffffffffffffffffffffffffffffffff1603620001245760006040517f1e4fbdf70000000000000000000000000000000000000000000000000000000081526004016200011b9190620005a8565b60405180910390fd5b62000135816200013c60201b60201c565b50620005c5565b6000600760009054906101000a900473ffffffffffffffffffffffffffffffffffffffff16905081600760006101000a81548173ffffffffffffffffffffffffffffffffffffffff021916908373ffffffffffffffffffffffffffffffffffffffff1602179055508173ffffffffffffffffffffffffffffffffffffffff168173ffffffffffffffffffffffffffffffffffffffff167f8be0079c531659141344cd1fd0a4f28419497f9722a3daafe3b4186f6b6457e060405160405180910390a35050565b600081519050919050565b7f4e487b7100000000000000000000000000000000000000000000000000000000600052604160045260246000fd5b7f4e487b7100000000000000000000000000000000000000000000000000000000600052602260045260246000fd5b600060028204905060018216806200028457607f821691505b6020821081036200029a57620002996200023c565b5b50919050565b60008190508160005260206000209050919050565b60006020601f8301049050919050565b600082821b905092915050565b600060088302620003047fffffffffffffffffffffffffffffffffffffffffffffffffffffffffffffffff82620002c5565b620003108683620002c5565b95508019841693508086168417925050509392505050565b6000819050919050565b6000819050919050565b60006200035d62000357620003518462000328565b62000332565b62000328565b9050919050565b6000819050919050565b62000379836200033c565b62000391620003888262000364565b848454620002d2565b825550505050565b600090565b620003a862000399565b620003b58184846200036e565b505050565b5b81811015620003dd57620003d16000826200039e565b600181019050620003bb565b5050565b601f8211156200042c57620003f681620002a0565b6200040184620002b5565b8101602085101562000411578190505b620004296200042085620002b5565b830182620003ba565b50505b505050565b600082821c905092915050565b6000620004516000198460080262000431565b1980831691505092915050565b60006200046c83836200043e565b9150826002028217905092915050565b620004878262000202565b67ffffffffffffffff811115620004a357620004a26200020d565b5b620004af82546200026b565b620004bc828285620003e1565b600060209050601f831160018114620004f45760008415620004df578287015190505b620004eb85826200045e565b8655506200055b565b601f1984166200050486620002a0565b60005b828110156200052e5784890151825560018201915060208501945060208101905062000507565b868310156200054e57848901516200054a601f8916826200043e565b8355505b6001600288020188555050505b505050505050565b600073ffffffffffffffffffffffffffffffffffffffff82169050919050565b6000620005908262000563565b9050919050565b620005a28162000583565b82525050565b6000602082019050620005bf600083018462000597565b92915050565b613e3f80620005d56000396000f3fe6080604052600436106101665760003560e01c80636d1884e0116100d157806395d89b411161008a578063b948348c11610064578063b948348c14610564578063c87b56dd14610580578063e985e9c5146105bd578063f2fde38b146105fa57610166565b806395d89b41146104e7578063a22cb46514610512578063b88d4fde1461053b57610166565b80636d1884e0146103d757806370a0823114610414578063715018a61461045157806371be2e4a146104685780637f42e845146104935780638da5cb5b146104bc57610166565b806323b872dd1161012357806323b872dd146102b857806326606448146102e157806342842e0e1461030a57806350b447121461033357806351958a56146103715780636352211e1461039a57610166565b806301ffc9a71461016b5780630484a22f146101a857806306fdde03146101e5578063081812fc14610210578063095ea7b31461024d5780630b79143014610276575b600080fd5b34801561017757600080fd5b50610192600480360381019061018d9190612a8a565b610623565b60405161019f9190612ad2565b60405180910390f35b3480156101b457600080fd5b506101cf60048036038101906101ca9190612b4b565b610684565b6040516101dc9190612c40565b60405180910390f35b3480156101f157600080fd5b506101fa610840565b6040516102079190612cf2565b60405180910390f35b34801561021c57600080fd5b5061023760048036038101906102329190612d40565b6108d2565b6040516102449190612d7c565b60405180910390f35b34801561025957600080fd5b50610274600480360381019061026f9190612d97565b6108ee565b005b34801561028257600080fd5b5061029d60048036038101906102989190612d40565b610904565b6040516102af96959493929190612de6565b60405180910390f35b3480156102c457600080fd5b506102df60048036038101906102da9190612e55565b610a7d565b005b3480156102ed57600080fd5b5061030860048036038101906103039190612d40565b610b7f565b005b34801561031657600080fd5b50610331600480360381019061032c9190612e55565b610d1c565b005b34801561033f57600080fd5b5061035a60048036038101906103559190612d40565b610d3c565b604051610368929190612ea8565b60405180910390f35b34801561037d57600080fd5b5061039860048036038101906103939190612d97565b610d6d565b005b3480156103a657600080fd5b506103c160048036038101906103bc9190612d40565b610f2b565b6040516103ce9190612d7c565b60405180910390f35b3480156103e357600080fd5b506103fe60048036038101906103f99190612d40565b610f3d565b60405161040b9190612fc9565b60405180910390f35b34801561042057600080fd5b5061043b60048036038101906104369190612b4b565b611113565b6040516104489190612feb565b60405180910390f35b34801561045d57600080fd5b506104666111cd565b005b34801561047457600080fd5b5061047d6111e1565b60405161048a9190612feb565b60405180910390f35b34801561049f57600080fd5b506104ba60048036038101906104b5919061313b565b6111f7565b005b3480156104c857600080fd5b506104d1611363565b6040516104de9190612d7c565b60405180910390f35b3480156104f357600080fd5b506104fc61138d565b6040516105099190612cf2565b60405180910390f35b34801561051e57600080fd5b5061053960048036038101906105349190613206565b61141f565b005b34801561054757600080fd5b50610562600480360381019061055d91906132e7565b611435565b005b61057e60048036038101906105799190612d40565b61145a565b005b34801561058c57600080fd5b506105a760048036038101906105a29190612d40565b611663565b6040516105b49190612cf2565b60405180910390f35b3480156105c957600080fd5b506105e460048036038101906105df919061336a565b611776565b6040516105f19190612ad2565b60405180910390f35b34801561060657600080fd5b50610621600480360381019061061c9190612b4b565b61180a565b005b6000634906490660e01b7bffffffffffffffffffffffffffffffffffffffffffffffffffffffff1916827bffffffffffffffffffffffffffffffffffffffffffffffffffffffff1916148061067d575061067c82611890565b5b9050919050565b60606000600160095461069791906133d9565b9050600080600190505b82811161072f57600c600082815260200190815260200160002060009054906101000a900460ff16801561070857508473ffffffffffffffffffffffffffffffffffffffff166106f082610f2b565b73ffffffffffffffffffffffffffffffffffffffff16145b1561071c5781806107189061340d565b9250505b80806107279061340d565b9150506106a1565b5060008167ffffffffffffffff81111561074c5761074b613010565b5b60405190808252806020026020018201604052801561077a5781602001602082028036833780820191505090505b509050600080600190505b84811161083357600c600082815260200190815260200160002060009054906101000a900460ff1680156107ec57508673ffffffffffffffffffffffffffffffffffffffff166107d482610f2b565b73ffffffffffffffffffffffffffffffffffffffff16145b15610820578083838151811061080557610804613455565b5b602002602001018181525050818061081c9061340d565b9250505b808061082b9061340d565b915050610785565b5081945050505050919050565b60606000805461084f906134b3565b80601f016020809104026020016040519081016040528092919081815260200182805461087b906134b3565b80156108c85780601f1061089d576101008083540402835291602001916108c8565b820191906000526020600020905b8154815290600101906020018083116108ab57829003601f168201915b5050505050905090565b60006108dd82611972565b506108e7826119fa565b9050919050565b61090082826108fb611a37565b611a3f565b5050565b600a602052806000526040600020600091509050806000018054610927906134b3565b80601f0160208091040260200160405190810160405280929190818152602001828054610953906134b3565b80156109a05780601f10610975576101008083540402835291602001916109a0565b820191906000526020600020905b81548152906001019060200180831161098357829003601f168201915b5050505050908060010154908060020180546109bb906134b3565b80601f01602080910402602001604051908101604052809291908181526020018280546109e7906134b3565b8015610a345780601f10610a0957610100808354040283529160200191610a34565b820191906000526020600020905b815481529060010190602001808311610a1757829003601f168201915b5050505050908060030154908060040160009054906101000a900473ffffffffffffffffffffffffffffffffffffffff16908060040160149054906101000a900460ff16905086565b600073ffffffffffffffffffffffffffffffffffffffff168273ffffffffffffffffffffffffffffffffffffffff1603610aef5760006040517f64a0ae92000000000000000000000000000000000000000000000000000000008152600401610ae69190612d7c565b60405180910390fd5b6000610b038383610afe611a37565b611a51565b90508373ffffffffffffffffffffffffffffffffffffffff168173ffffffffffffffffffffffffffffffffffffffff1614610b79578382826040517f64283d7b000000000000000000000000000000000000000000000000000000008152600401610b70939291906134e4565b60405180910390fd5b50505050565b600c600082815260200190815260200160002060009054906101000a900460ff16610bdf576040517f08c379a0000000000000000000000000000000000000000000000000000000008152600401610bd690613567565b60405180910390fd5b3373ffffffffffffffffffffffffffffffffffffffff16610bff82610f2b565b73ffffffffffffffffffffffffffffffffffffffff1614610c55576040517f08c379a0000000000000000000000000000000000000000000000000000000008152600401610c4c906135d3565b60405180910390fd5b6000600b600083815260200190815260200160002090508060010160009054906101000a900460ff1615610cbe576040517f08c379a0000000000000000000000000000000000000000000000000000000008152600401610cb59061363f565b60405180910390fd5b60018160010160006101000a81548160ff0219169083151502179055507fad0a02848182e7d3a9bb0ae2cc919bdef92f9da6b0a45ced3656cf5443212ede828260000154604051610d1092919061365f565b60405180910390a15050565b610d3783838360405180602001604052806000815250611435565b505050565b600b6020528060005260406000206000915090508060000154908060010160009054906101000a900460ff16905082565b600c600082815260200190815260200160002060009054906101000a900460ff16610dcd576040517f08c379a0000000000000000000000000000000000000000000000000000000008152600401610dc490613567565b60405180910390fd5b3373ffffffffffffffffffffffffffffffffffffffff16610ded82610f2b565b73ffffffffffffffffffffffffffffffffffffffff1614610e43576040517f08c379a0000000000000000000000000000000000000000000000000000000008152600401610e3a906136fa565b60405180910390fd5b600073ffffffffffffffffffffffffffffffffffffffff168273ffffffffffffffffffffffffffffffffffffffff1603610eb2576040517f08c379a0000000000000000000000000000000000000000000000000000000008152600401610ea990613766565b60405180910390fd5b6000600b600083815260200190815260200160002090508060010160009054906101000a900460ff1615610f1b576040517f08c379a0000000000000000000000000000000000000000000000000000000008152600401610f12906137f8565b60405180910390fd5b610f26338484611c6b565b505050565b6000610f3682611972565b9050919050565b610f456129d0565b600a60008381526020019081526020016000206040518060c0016040529081600082018054610f73906134b3565b80601f0160208091040260200160405190810160405280929190818152602001828054610f9f906134b3565b8015610fec5780601f10610fc157610100808354040283529160200191610fec565b820191906000526020600020905b815481529060010190602001808311610fcf57829003601f168201915b505050505081526020016001820154815260200160028201805461100f906134b3565b80601f016020809104026020016040519081016040528092919081815260200182805461103b906134b3565b80156110885780601f1061105d57610100808354040283529160200191611088565b820191906000526020600020905b81548152906001019060200180831161106b57829003601f168201915b50505050508152602001600382015481526020016004820160009054906101000a900473ffffffffffffffffffffffffffffffffffffffff1673ffffffffffffffffffffffffffffffffffffffff1673ffffffffffffffffffffffffffffffffffffffff1681526020016004820160149054906101000a900460ff1615151515815250509050919050565b60008073ffffffffffffffffffffffffffffffffffffffff168273ffffffffffffffffffffffffffffffffffffffff16036111865760006040517f89c62b6400000000000000000000000000000000000000000000000000000000815260040161117d9190612d7c565b60405180910390fd5b600360008373ffffffffffffffffffffffffffffffffffffffff1673ffffffffffffffffffffffffffffffffffffffff168152602001908152602001600020549050919050565b6111d5611dd8565b6111df6000611e5f565b565b600060016008546111f291906133d9565b905090565b600060085490506001600860008282546112119190613818565b925050819055506040518060c001604052808681526020018581526020018481526020018381526020013373ffffffffffffffffffffffffffffffffffffffff16815260200160011515815250600a6000838152602001908152602001600020600082015181600001908161128691906139f8565b506020820151816001015560408201518160020190816112a691906139f8565b506060820151816003015560808201518160040160006101000a81548173ffffffffffffffffffffffffffffffffffffffff021916908373ffffffffffffffffffffffffffffffffffffffff16021790555060a08201518160040160146101000a81548160ff0219169083151502179055509050507f979fb8f5e06f17ba953e529a270755f94dba6d104bd4437930e9b6de8464444281868686863360405161135496959493929190613aca565b60405180910390a15050505050565b6000600760009054906101000a900473ffffffffffffffffffffffffffffffffffffffff16905090565b60606001805461139c906134b3565b80601f01602080910402602001604051908101604052809291908181526020018280546113c8906134b3565b80156114155780601f106113ea57610100808354040283529160200191611415565b820191906000526020600020905b8154815290600101906020018083116113f857829003601f168201915b5050505050905090565b61143161142a611a37565b8383611f25565b5050565b611440848484610a7d565b61145461144b611a37565b85858585612094565b50505050565b6000600a600083815260200190815260200160002090508060040160149054906101000a900460ff166114c2576040517f08c379a00000000000000000000000000000000000000000000000000000000081526004016114b990613bab565b60405180910390fd5b8060030154341015611509576040517f08c379a000000000000000000000000000000000000000000000000000000000815260040161150090613c17565b60405180910390fd5b600060095490506001600960008282546115239190613818565b92505081905550604051806040016040528084815260200160001515815250600b60008381526020019081526020016000206000820151816000015560208201518160010160006101000a81548160ff0219169083151502179055509050506001600c600083815260200190815260200160002060006101000a81548160ff0219169083151502179055506115b83382612245565b8160040160009054906101000a900473ffffffffffffffffffffffffffffffffffffffff1673ffffffffffffffffffffffffffffffffffffffff166108fc349081150290604051600060405180830381858888f19350505050158015611622573d6000803e3d6000fd5b507f94c5953e15f54d38b82a662bdd5739fc91af3a23d3ef7e67269dfaeee71a813c81843360405161165693929190613c37565b60405180910390a1505050565b606061166e82611972565b50600060066000848152602001908152602001600020805461168f906134b3565b80601f01602080910402602001604051908101604052809291908181526020018280546116bb906134b3565b80156117085780601f106116dd57610100808354040283529160200191611708565b820191906000526020600020905b8154815290600101906020018083116116eb57829003601f168201915b50505050509050600061171961233e565b9050600081510361172e578192505050611771565b60008251111561176357808260405160200161174b929190613caa565b60405160208183030381529060405292505050611771565b61176c84612355565b925050505b919050565b6000600560008473ffffffffffffffffffffffffffffffffffffffff1673ffffffffffffffffffffffffffffffffffffffff16815260200190815260200160002060008373ffffffffffffffffffffffffffffffffffffffff1673ffffffffffffffffffffffffffffffffffffffff16815260200190815260200160002060009054906101000a900460ff16905092915050565b611812611dd8565b600073ffffffffffffffffffffffffffffffffffffffff168173ffffffffffffffffffffffffffffffffffffffff16036118845760006040517f1e4fbdf700000000000000000000000000000000000000000000000000000000815260040161187b9190612d7c565b60405180910390fd5b61188d81611e5f565b50565b60007f80ac58cd000000000000000000000000000000000000000000000000000000007bffffffffffffffffffffffffffffffffffffffffffffffffffffffff1916827bffffffffffffffffffffffffffffffffffffffffffffffffffffffff1916148061195b57507f5b5e139f000000000000000000000000000000000000000000000000000000007bffffffffffffffffffffffffffffffffffffffffffffffffffffffff1916827bffffffffffffffffffffffffffffffffffffffffffffffffffffffff1916145b8061196b575061196a826123be565b5b9050919050565b60008061197e83612428565b9050600073ffffffffffffffffffffffffffffffffffffffff168173ffffffffffffffffffffffffffffffffffffffff16036119f157826040517f7e2732890000000000000000000000000000000000000000000000000000000081526004016119e89190612feb565b60405180910390fd5b80915050919050565b60006004600083815260200190815260200160002060009054906101000a900473ffffffffffffffffffffffffffffffffffffffff169050919050565b600033905090565b611a4c8383836001612465565b505050565b600080611a5d84612428565b9050600073ffffffffffffffffffffffffffffffffffffffff168373ffffffffffffffffffffffffffffffffffffffff1614611a9f57611a9e81848661262a565b5b600073ffffffffffffffffffffffffffffffffffffffff168173ffffffffffffffffffffffffffffffffffffffff1614611b3057611ae1600085600080612465565b6001600360008373ffffffffffffffffffffffffffffffffffffffff1673ffffffffffffffffffffffffffffffffffffffff168152602001908152602001600020600082825403925050819055505b600073ffffffffffffffffffffffffffffffffffffffff168573ffffffffffffffffffffffffffffffffffffffff1614611bb3576001600360008773ffffffffffffffffffffffffffffffffffffffff1673ffffffffffffffffffffffffffffffffffffffff168152602001908152602001600020600082825401925050819055505b846002600086815260200190815260200160002060006101000a81548173ffffffffffffffffffffffffffffffffffffffff021916908373ffffffffffffffffffffffffffffffffffffffff160217905550838573ffffffffffffffffffffffffffffffffffffffff168273ffffffffffffffffffffffffffffffffffffffff167fddf252ad1be2c89b69c2b068fc378daa952ba7f163c4a11628f55a4df523b3ef60405160405180910390a4809150509392505050565b600073ffffffffffffffffffffffffffffffffffffffff168273ffffffffffffffffffffffffffffffffffffffff1603611cdd5760006040517f64a0ae92000000000000000000000000000000000000000000000000000000008152600401611cd49190612d7c565b60405180910390fd5b6000611ceb83836000611a51565b9050600073ffffffffffffffffffffffffffffffffffffffff168173ffffffffffffffffffffffffffffffffffffffff1603611d5e57816040517f7e273289000000000000000000000000000000000000000000000000000000008152600401611d559190612feb565b60405180910390fd5b8373ffffffffffffffffffffffffffffffffffffffff168173ffffffffffffffffffffffffffffffffffffffff1614611dd2578382826040517f64283d7b000000000000000000000000000000000000000000000000000000008152600401611dc9939291906134e4565b60405180910390fd5b50505050565b611de0611a37565b73ffffffffffffffffffffffffffffffffffffffff16611dfe611363565b73ffffffffffffffffffffffffffffffffffffffff1614611e5d57611e21611a37565b6040517f118cdaa7000000000000000000000000000000000000000000000000000000008152600401611e549190612d7c565b60405180910390fd5b565b6000600760009054906101000a900473ffffffffffffffffffffffffffffffffffffffff16905081600760006101000a81548173ffffffffffffffffffffffffffffffffffffffff021916908373ffffffffffffffffffffffffffffffffffffffff1602179055508173ffffffffffffffffffffffffffffffffffffffff168173ffffffffffffffffffffffffffffffffffffffff167f8be0079c531659141344cd1fd0a4f28419497f9722a3daafe3b4186f6b6457e060405160405180910390a35050565b600073ffffffffffffffffffffffffffffffffffffffff168273ffffffffffffffffffffffffffffffffffffffff1603611f9657816040517f5b08ba18000000000000000000000000000000000000000000000000000000008152600401611f8d9190612d7c565b60405180910390fd5b80600560008573ffffffffffffffffffffffffffffffffffffffff1673ffffffffffffffffffffffffffffffffffffffff16815260200190815260200160002060008473ffffffffffffffffffffffffffffffffffffffff1673ffffffffffffffffffffffffffffffffffffffff16815260200190815260200160002060006101000a81548160ff0219169083151502179055508173ffffffffffffffffffffffffffffffffffffffff168373ffffffffffffffffffffffffffffffffffffffff167f17307eab39ab6107e8899845ad3d59bd9653f200f220920489ca2b5937696c31836040516120879190612ad2565b60405180910390a3505050565b60008373ffffffffffffffffffffffffffffffffffffffff163b111561223e578273ffffffffffffffffffffffffffffffffffffffff1663150b7a02868685856040518563ffffffff1660e01b81526004016120f39493929190613d23565b6020604051808303816000875af192505050801561212f57506040513d601f19601f8201168201806040525081019061212c9190613d84565b60015b6121b3573d806000811461215f576040519150601f19603f3d011682016040523d82523d6000602084013e612164565b606091505b5060008151036121ab57836040517f64a0ae920000000000000000000000000000000000000000000000000000000081526004016121a29190612d7c565b60405180910390fd5b805181602001fd5b63150b7a0260e01b7bffffffffffffffffffffffffffffffffffffffffffffffffffffffff1916817bffffffffffffffffffffffffffffffffffffffffffffffffffffffff19161461223c57836040517f64a0ae920000000000000000000000000000000000000000000000000000000081526004016122339190612d7c565b60405180910390fd5b505b5050505050565b600073ffffffffffffffffffffffffffffffffffffffff168273ffffffffffffffffffffffffffffffffffffffff16036122b75760006040517f64a0ae920000000000000000000000000000000000000000000000000000000081526004016122ae9190612d7c565b60405180910390fd5b60006122c583836000611a51565b9050600073ffffffffffffffffffffffffffffffffffffffff168173ffffffffffffffffffffffffffffffffffffffff16146123395760006040517f73c6ac6e0000000000000000000000000000000000000000000000000000000081526004016123309190612d7c565b60405180910390fd5b505050565b606060405180602001604052806000815250905090565b606061236082611972565b50600061236b61233e565b9050600081511161238b57604051806020016040528060008152506123b6565b80612395846126ee565b6040516020016123a6929190613caa565b6040516020818303038152906040525b915050919050565b60007f01ffc9a7000000000000000000000000000000000000000000000000000000007bffffffffffffffffffffffffffffffffffffffffffffffffffffffff1916827bffffffffffffffffffffffffffffffffffffffffffffffffffffffff1916149050919050565b60006002600083815260200190815260200160002060009054906101000a900473ffffffffffffffffffffffffffffffffffffffff169050919050565b808061249e5750600073ffffffffffffffffffffffffffffffffffffffff168273ffffffffffffffffffffffffffffffffffffffff1614155b156125d25760006124ae84611972565b9050600073ffffffffffffffffffffffffffffffffffffffff168373ffffffffffffffffffffffffffffffffffffffff161415801561251957508273ffffffffffffffffffffffffffffffffffffffff168173ffffffffffffffffffffffffffffffffffffffff1614155b801561252c575061252a8184611776565b155b1561256e57826040517fa9fbf51f0000000000000000000000000000000000000000000000000000000081526004016125659190612d7c565b60405180910390fd5b81156125d057838573ffffffffffffffffffffffffffffffffffffffff168273ffffffffffffffffffffffffffffffffffffffff167f8c5be1e5ebec7d5bd14f71427d1e84f3dd0314c0f7b2291e5b200ac8c7c3b92560405160405180910390a45b505b836004600085815260200190815260200160002060006101000a81548173ffffffffffffffffffffffffffffffffffffffff021916908373ffffffffffffffffffffffffffffffffffffffff16021790555050505050565b6126358383836127bc565b6126e957600073ffffffffffffffffffffffffffffffffffffffff168373ffffffffffffffffffffffffffffffffffffffff16036126aa57806040517f7e2732890000000000000000000000000000000000000000000000000000000081526004016126a19190612feb565b60405180910390fd5b81816040517f177e802f0000000000000000000000000000000000000000000000000000000081526004016126e0929190613db1565b60405180910390fd5b505050565b6060600060016126fd8461287d565b01905060008167ffffffffffffffff81111561271c5761271b613010565b5b6040519080825280601f01601f19166020018201604052801561274e5781602001600182028036833780820191505090505b509050600082602001820190505b6001156127b1578080600190039150507f3031323334353637383961626364656600000000000000000000000000000000600a86061a8153600a85816127a5576127a4613dda565b5b0494506000850361275c575b819350505050919050565b60008073ffffffffffffffffffffffffffffffffffffffff168373ffffffffffffffffffffffffffffffffffffffff161415801561287457508273ffffffffffffffffffffffffffffffffffffffff168473ffffffffffffffffffffffffffffffffffffffff16148061283557506128348484611776565b5b8061287357508273ffffffffffffffffffffffffffffffffffffffff1661285b836119fa565b73ffffffffffffffffffffffffffffffffffffffff16145b5b90509392505050565b600080600090507a184f03e93ff9f4daa797ed6e38ed64bf6a1f01000000000000000083106128db577a184f03e93ff9f4daa797ed6e38ed64bf6a1f01000000000000000083816128d1576128d0613dda565b5b0492506040810190505b6d04ee2d6d415b85acef81000000008310612918576d04ee2d6d415b85acef8100000000838161290e5761290d613dda565b5b0492506020810190505b662386f26fc10000831061294757662386f26fc10000838161293d5761293c613dda565b5b0492506010810190505b6305f5e1008310612970576305f5e100838161296657612965613dda565b5b0492506008810190505b612710831061299557612710838161298b5761298a613dda565b5b0492506004810190505b606483106129b857606483816129ae576129ad613dda565b5b0492506002810190505b600a83106129c7576001810190505b80915050919050565b6040518060c0016040528060608152602001600081526020016060815260200160008152602001600073ffffffffffffffffffffffffffffffffffffffff1681526020016000151581525090565b6000604051905090565b600080fd5b600080fd5b60007fffffffff0000000000000000000000000000000000000000000000000000000082169050919050565b612a6781612a32565b8114612a7257600080fd5b50565b600081359050612a8481612a5e565b92915050565b600060208284031215612aa057612a9f612a28565b5b6000612aae84828501612a75565b91505092915050565b60008115159050919050565b612acc81612ab7565b82525050565b6000602082019050612ae76000830184612ac3565b92915050565b600073ffffffffffffffffffffffffffffffffffffffff82169050919050565b6000612b1882612aed565b9050919050565b612b2881612b0d565b8114612b3357600080fd5b50565b600081359050612b4581612b1f565b92915050565b600060208284031215612b6157612b60612a28565b5b6000612b6f84828501612b36565b91505092915050565b600081519050919050565b600082825260208201905092915050565b6000819050602082019050919050565b6000819050919050565b612bb781612ba4565b82525050565b6000612bc98383612bae565b60208301905092915050565b6000602082019050919050565b6000612bed82612b78565b612bf78185612b83565b9350612c0283612b94565b8060005b83811015612c33578151612c1a8882612bbd565b9750612c2583612bd5565b925050600181019050612c06565b5085935050505092915050565b60006020820190508181036000830152612c5a8184612be2565b905092915050565b600081519050919050565b600082825260208201905092915050565b60005b83811015612c9c578082015181840152602081019050612c81565b60008484015250505050565b6000601f19601f8301169050919050565b6000612cc482612c62565b612cce8185612c6d565b9350612cde818560208601612c7e565b612ce781612ca8565b840191505092915050565b60006020820190508181036000830152612d0c8184612cb9565b905092915050565b612d1d81612ba4565b8114612d2857600080fd5b50565b600081359050612d3a81612d14565b92915050565b600060208284031215612d5657612d55612a28565b5b6000612d6484828501612d2b565b91505092915050565b612d7681612b0d565b82525050565b6000602082019050612d916000830184612d6d565b92915050565b60008060408385031215612dae57612dad612a28565b5b6000612dbc85828601612b36565b9250506020612dcd85828601612d2b565b9150509250929050565b612de081612ba4565b82525050565b600060c0820190508181036000830152612e008189612cb9565b9050612e0f6020830188612dd7565b8181036040830152612e218187612cb9565b9050612e306060830186612dd7565b612e3d6080830185612d6d565b612e4a60a0830184612ac3565b979650505050505050565b600080600060608486031215612e6e57612e6d612a28565b5b6000612e7c86828701612b36565b9350506020612e8d86828701612b36565b9250506040612e9e86828701612d2b565b9150509250925092565b6000604082019050612ebd6000830185612dd7565b612eca6020830184612ac3565b9392505050565b600082825260208201905092915050565b6000612eed82612c62565b612ef78185612ed1565b9350612f07818560208601612c7e565b612f1081612ca8565b840191505092915050565b612f2481612b0d565b82525050565b612f3381612ab7565b82525050565b600060c0830160008301518482036000860152612f568282612ee2565b9150506020830151612f6b6020860182612bae565b5060408301518482036040860152612f838282612ee2565b9150506060830151612f986060860182612bae565b506080830151612fab6080860182612f1b565b5060a0830151612fbe60a0860182612f2a565b508091505092915050565b60006020820190508181036000830152612fe38184612f39565b905092915050565b60006020820190506130006000830184612dd7565b92915050565b600080fd5b600080fd5b7f4e487b7100000000000000000000000000000000000000000000000000000000600052604160045260246000fd5b61304882612ca8565b810181811067ffffffffffffffff8211171561306757613066613010565b5b80604052505050565b600061307a612a1e565b9050613086828261303f565b919050565b600067ffffffffffffffff8211156130a6576130a5613010565b5b6130af82612ca8565b9050602081019050919050565b82818337600083830152505050565b60006130de6130d98461308b565b613070565b9050828152602081018484840111156130fa576130f961300b565b5b6131058482856130bc565b509392505050565b600082601f83011261312257613121613006565b5b81356131328482602086016130cb565b91505092915050565b6000806000806080858703121561315557613154612a28565b5b600085013567ffffffffffffffff81111561317357613172612a2d565b5b61317f8782880161310d565b945050602061319087828801612d2b565b935050604085013567ffffffffffffffff8111156131b1576131b0612a2d565b5b6131bd8782880161310d565b92505060606131ce87828801612d2b565b91505092959194509250565b6131e381612ab7565b81146131ee57600080fd5b50565b600081359050613200816131da565b92915050565b6000806040838503121561321d5761321c612a28565b5b600061322b85828601612b36565b925050602061323c858286016131f1565b9150509250929050565b600067ffffffffffffffff82111561326157613260613010565b5b61326a82612ca8565b9050602081019050919050565b600061328a61328584613246565b613070565b9050828152602081018484840111156132a6576132a561300b565b5b6132b18482856130bc565b509392505050565b600082601f8301126132ce576132cd613006565b5b81356132de848260208601613277565b91505092915050565b6000806000806080858703121561330157613300612a28565b5b600061330f87828801612b36565b945050602061332087828801612b36565b935050604061333187828801612d2b565b925050606085013567ffffffffffffffff81111561335257613351612a2d565b5b61335e878288016132b9565b91505092959194509250565b6000806040838503121561338157613380612a28565b5b600061338f85828601612b36565b92505060206133a085828601612b36565b9150509250929050565b7f4e487b7100000000000000000000000000000000000000000000000000000000600052601160045260246000fd5b60006133e482612ba4565b91506133ef83612ba4565b9250828203905081811115613407576134066133aa565b5b92915050565b600061341882612ba4565b91507fffffffffffffffffffffffffffffffffffffffffffffffffffffffffffffffff820361344a576134496133aa565b5b600182019050919050565b7f4e487b7100000000000000000000000000000000000000000000000000000000600052603260045260246000fd5b7f4e487b7100000000000000000000000000000000000000000000000000000000600052602260045260246000fd5b600060028204905060018216806134cb57607f821691505b6020821081036134de576134dd613484565b5b50919050565b60006060820190506134f96000830186612d6d565b6135066020830185612dd7565b6135136040830184612d6d565b949350505050565b7f5469636b657420646f6573206e6f742065786973740000000000000000000000600082015250565b6000613551601583612c6d565b915061355c8261351b565b602082019050919050565b6000602082019050818103600083015261358081613544565b9050919050565b7f4f6e6c79207469636b6574206f776e65722063616e20757365207469636b6574600082015250565b60006135bd602083612c6d565b91506135c882613587565b602082019050919050565b600060208201905081810360008301526135ec816135b0565b9050919050565b7f5469636b65742068617320616c7265616479206265656e207573656400000000600082015250565b6000613629601c83612c6d565b9150613634826135f3565b602082019050919050565b600060208201905081810360008301526136588161361c565b9050919050565b60006040820190506136746000830185612dd7565b6136816020830184612dd7565b9392505050565b7f4f6e6c79207469636b6574206f776e65722063616e207472616e73666572207460008201527f69636b6574000000000000000000000000000000000000000000000000000000602082015250565b60006136e4602583612c6d565b91506136ef82613688565b604082019050919050565b60006020820190508181036000830152613713816136d7565b9050919050565b7f43616e6e6f74207472616e7366657220746f207a65726f206164647265737300600082015250565b6000613750601f83612c6d565b915061375b8261371a565b602082019050919050565b6000602082019050818103600083015261377f81613743565b9050919050565b7f55736564207469636b6574732063616e6e6f74206265207472616e736665727260008201527f6564000000000000000000000000000000000000000000000000000000000000602082015250565b60006137e2602283612c6d565b91506137ed82613786565b604082019050919050565b60006020820190508181036000830152613811816137d5565b9050919050565b600061382382612ba4565b915061382e83612ba4565b9250828201905080821115613846576138456133aa565b5b92915050565b60008190508160005260206000209050919050565b60006020601f8301049050919050565b600082821b905092915050565b6000600883026138ae7fffffffffffffffffffffffffffffffffffffffffffffffffffffffffffffffff82613871565b6138b88683613871565b95508019841693508086168417925050509392505050565b6000819050919050565b60006138f56138f06138eb84612ba4565b6138d0565b612ba4565b9050919050565b6000819050919050565b61390f836138da565b61392361391b826138fc565b84845461387e565b825550505050565b600090565b61393861392b565b613943818484613906565b505050565b5b818110156139675761395c600082613930565b600181019050613949565b5050565b601f8211156139ac5761397d8161384c565b61398684613861565b81016020851015613995578190505b6139a96139a185613861565b830182613948565b50505b505050565b600082821c905092915050565b60006139cf600019846008026139b1565b1980831691505092915050565b60006139e883836139be565b9150826002028217905092915050565b613a0182612c62565b67ffffffffffffffff811115613a1a57613a19613010565b5b613a2482546134b3565b613a2f82828561396b565b600060209050601f831160018114613a625760008415613a50578287015190505b613a5a85826139dc565b865550613ac2565b601f198416613a708661384c565b60005b82811015613a9857848901518255600182019150602085019450602081019050613a73565b86831015613ab55784890151613ab1601f8916826139be565b8355505b6001600288020188555050505b505050505050565b600060c082019050613adf6000830189612dd7565b8181036020830152613af18188612cb9565b9050613b006040830187612dd7565b8181036060830152613b128186612cb9565b9050613b216080830185612dd7565b613b2e60a0830184612d6d565b979650505050505050565b7f4576656e7420646f6573206e6f74206578697374206f72206973206e6f74206160008201527f6374697665000000000000000000000000000000000000000000000000000000602082015250565b6000613b95602583612c6d565b9150613ba082613b39565b604082019050919050565b60006020820190508181036000830152613bc481613b88565b9050919050565b7f496e73756666696369656e742066756e647320666f72207469636b6574000000600082015250565b6000613c01601d83612c6d565b9150613c0c82613bcb565b602082019050919050565b60006020820190508181036000830152613c3081613bf4565b9050919050565b6000606082019050613c4c6000830186612dd7565b613c596020830185612dd7565b613c666040830184612d6d565b949350505050565b600081905092915050565b6000613c8482612c62565b613c8e8185613c6e565b9350613c9e818560208601612c7e565b80840191505092915050565b6000613cb68285613c79565b9150613cc28284613c79565b91508190509392505050565b600081519050919050565b600082825260208201905092915050565b6000613cf582613cce565b613cff8185613cd9565b9350613d0f818560208601612c7e565b613d1881612ca8565b840191505092915050565b6000608082019050613d386000830187612d6d565b613d456020830186612d6d565b613d526040830185612dd7565b8181036060830152613d648184613cea565b905095945050505050565b600081519050613d7e81612a5e565b92915050565b600060208284031215613d9a57613d99612a28565b5b6000613da884828501613d6f565b91505092915050565b6000604082019050613dc66000830185612d6d565b613dd36020830184612dd7565b9392505050565b7f4e487b7100000000000000000000000000000000000000000000000000000000600052601260045260246000fdfea2646970667358221220a8f4730e6100f953b69a8e277aa27df62c4a52fbae2161938c88b7a05ce83a0464736f6c63430008140033",
  "linkReferences": {},
  "deployedLinkReferences": {}
}